:020000042001D9
:10000000970200009382820173905230F32240F1F4
:10001000639002006F0000026F00000057656C6C77
:10002000636F6D6520746F2069630D0A0000000026
:100030003E20000037350110832285009305D00053
:100040001306A0000323C50093E2120013631300FC
:10005000232455002326650017030000130343FCE7
:100060008303030013031300638A03008322050044
:10007000E3CE02FE232075006FF09FFE1703000001
:10008000130343FB8303030013031300638A03007A
:1000900083220500E3CE02FE232075006FF09FFE51
:1000A00083224500E3CE02FE93F2F20FE38A02FEC2
:1000B00003230500E34E03FE23205500E392B2FE26
:1000C00083220500E3CE02FE2320C5006FF01FFB54
:0400000520010000D6
:00000001FF
